{
  "contractName": "OnlineOrderingSystem",
  "abi": [
    {
      "anonymous": false,
      "inputs": [
        {
          "indexed": true,
          "internalType": "address",
          "name": "customer",
          "type": "address"
        },
        {
          "indexed": false,
          "internalType": "uint256",
          "name": "americanoQuantity",
          "type": "uint256"
        },
        {
          "indexed": false,
          "internalType": "uint256",
          "name": "milkTeaQuantity",
          "type": "uint256"
        },
        {
          "indexed": false,
          "internalType": "uint256",
          "name": "cappuccinoQuantity",
          "type": "uint256"
        },
        {
          "indexed": false,
          "internalType": "uint256",
          "name": "totalAmount",
          "type": "uint256"
        }
      ],
      "name": "OrderPlaced",
      "type": "event"
    },
    {
      "inputs": [
        {
          "internalType": "uint256",
          "name": "",
          "type": "uint256"
        }
      ],
      "name": "customers",
      "outputs": [
        {
          "internalType": "address",
          "name": "",
          "type": "address"
        }
      ],
      "stateMutability": "view",
      "type": "function",
      "constant": true
    },
    {
      "inputs": [
        {
          "internalType": "address",
          "name": "",
          "type": "address"
        }
      ],
      "name": "orders",
      "outputs": [
        {
          "internalType": "address",
          "name": "customer",
          "type": "address"
        },
        {
          "internalType": "uint256",
          "name": "americanoQuantity",
          "type": "uint256"
        },
        {
          "internalType": "uint256",
          "name": "milkTeaQuantity",
          "type": "uint256"
        },
        {
          "internalType": "uint256",
          "name": "cappuccinoQuantity",
          "type": "uint256"
        },
        {
          "internalType": "uint256",
          "name": "totalAmount",
          "type": "uint256"
        }
      ],
      "stateMutability": "view",
      "type": "function",
      "constant": true
    },
    {
      "stateMutability": "payable",
      "type": "receive",
      "payable": true
    },
    {
      "inputs": [
        {
          "internalType": "uint256",
          "name": "_americanoQuantity",
          "type": "uint256"
        },
        {
          "internalType": "uint256",
          "name": "_milkTeaQuantity",
          "type": "uint256"
        },
        {
          "internalType": "uint256",
          "name": "_cappuccinoQuantity",
          "type": "uint256"
        }
      ],
      "name": "placeOrder",
      "outputs": [],
      "stateMutability": "payable",
      "type": "function",
      "payable": true
    },
    {
      "inputs": [
        {
          "internalType": "address",
          "name": "_customer",
          "type": "address"
        }
      ],
      "name": "getOrder",
      "outputs": [
        {
          "components": [
            {
              "internalType": "address",
              "name": "customer",
              "type": "address"
            },
            {
              "internalType": "uint256",
              "name": "americanoQuantity",
              "type": "uint256"
            },
            {
              "internalType": "uint256",
              "name": "milkTeaQuantity",
              "type": "uint256"
            },
            {
              "internalType": "uint256",
              "name": "cappuccinoQuantity",
              "type": "uint256"
            },
            {
              "internalType": "uint256",
              "name": "totalAmount",
              "type": "uint256"
            }
          ],
          "internalType": "struct OnlineOrderingSystem.Order",
          "name": "",
          "type": "tuple"
        }
      ],
      "stateMutability": "view",
      "type": "function",
      "constant": true
    },
    {
      "inputs": [],
      "name": "withdrawFunds",
      "outputs": [],
      "stateMutability": "nonpayable",
      "type": "function"
    }
  ],
  "bytecode": "0x608060405234801561001057600080fd5b506109b6806100206000396000f3fe60806040526004361061004e5760003560e01c80630e97cfdf1461005a57806324600fc3146100765780636eba2b131461008d578063c0abda2a146100ca578063f40e84711461010757610055565b3661005557005b600080fd5b610074600480360381019061006f91906105f0565b610148565b005b34801561008257600080fd5b5061008b610373565b005b34801561009957600080fd5b506100b460048036038101906100af9190610596565b6103bc565b6040516100c19190610798565b60405180910390f35b3480156100d657600080fd5b506100f160048036038101906100ec91906105c3565b610492565b6040516100fe919061070a565b60405180910390f35b34801561011357600080fd5b5061012e60048036038101906101299190610596565b6104d1565b60405161013f959493929190610725565b60405180910390f35b6000601e82610157919061085f565b601484610164919061085f565b600a86610171919061085f565b61017b9190610809565b6101859190610809565b90508034146101c9576040517f08c379a00000000000000000000000000000000000000000000000000000000081526004016101c090610778565b60405180910390fd5b6040518060a001604052803373ffffffffffffffffffffffffffffffffffffffff168152602001858152602001848152602001838152602001828152506000803373ffffffffffffffffffffffffffffffffffffffff1673ffffffffffffffffffffffffffffffffffffffff16815260200190815260200160002060008201518160000160006101000a81548173ffffffffffffffffffffffffffffffffffffffff021916908373ffffffffffffffffffffffffffffffffffffffff160217905550602082015181600101556040820151816002015560608201518160030155608082015181600401559050506001339080600181540180825580915050600190039060005260206000200160009091909190916101000a81548173ffffffffffffffffffffffffffffffffffffffff021916908373ffffffffffffffffffffffffffffffffffffffff1602179055503373ffffffffffffffffffffffffffffffffffffffff167fef1644a538db4c454d0b16665e287cc3c27893b0e8693a56d1bf5283df77e4808585858560405161036594939291906107b3565b60405180910390a250505050565b3373ffffffffffffffffffffffffffffffffffffffff166108fc479081150290604051600060405180830381858888f193505050501580156103b9573d6000803e3d6000fd5b50565b6103c4610527565b6000808373ffffffffffffffffffffffffffffffffffffffff1673ffffffffffffffffffffffffffffffffffffffff1681526020019081526020016000206040518060a00160405290816000820160009054906101000a900473ffffffffffffffffffffffffffffffffffffffff1673ffffffffffffffffffffffffffffffffffffffff1673ffffffffffffffffffffffffffffffffffffffff1681526020016001820154815260200160028201548152602001600382015481526020016004820154815250509050919050565b600181815481106104a257600080fd5b906000526020600020016000915054906101000a900473ffffffffffffffffffffffffffffffffffffffff1681565b60006020528060005260406000206000915090508060000160009054906101000a900473ffffffffffffffffffffffffffffffffffffffff16908060010154908060020154908060030154908060040154905085565b6040518060a00160405280600073ffffffffffffffffffffffffffffffffffffffff168152602001600081526020016000815260200160008152602001600081525090565b60008135905061057b81610952565b92915050565b60008135905061059081610969565b92915050565b6000602082840312156105ac576105ab610924565b5b60006105ba8482850161056c565b91505092915050565b6000602082840312156105d9576105d8610924565b5b60006105e784828501610581565b91505092915050565b60008060006060848603121561060957610608610924565b5b600061061786828701610581565b935050602061062886828701610581565b925050604061063986828701610581565b9150509250925092565b61064c816108b9565b82525050565b61065b816108b9565b82525050565b600061066e6018836107f8565b915061067982610929565b602082019050919050565b60a08201600082015161069a6000850182610643565b5060208201516106ad60208501826106ec565b5060408201516106c060408501826106ec565b5060608201516106d360608501826106ec565b5060808201516106e660808501826106ec565b50505050565b6106f5816108eb565b82525050565b610704816108eb565b82525050565b600060208201905061071f6000830184610652565b92915050565b600060a08201905061073a6000830188610652565b61074760208301876106fb565b61075460408301866106fb565b61076160608301856106fb565b61076e60808301846106fb565b9695505050505050565b6000602082019050818103600083015261079181610661565b9050919050565b600060a0820190506107ad6000830184610684565b92915050565b60006080820190506107c860008301876106fb565b6107d560208301866106fb565b6107e260408301856106fb565b6107ef60608301846106fb565b95945050505050565b600082825260208201905092915050565b6000610814826108eb565b915061081f836108eb565b9250827fffffffffffffffffffffffffffffffffffffffffffffffffffffffffffffffff03821115610854576108536108f5565b5b828201905092915050565b600061086a826108eb565b9150610875836108eb565b9250817fffffffffffffffffffffffffffffffffffffffffffffffffffffffffffffffff04831182151516156108ae576108ad6108f5565b5b828202905092915050565b60006108c4826108cb565b9050919050565b600073ffffffffffffffffffffffffffffffffffffffff82169050919050565b6000819050919050565b7f4e487b7100000000000000000000000000000000000000000000000000000000600052601160045260246000fd5b600080fd5b7f496e636f7272656374207061796d656e7420616d6f756e740000000000000000600082015250565b61095b816108b9565b811461096657600080fd5b50565b610972816108eb565b811461097d57600080fd5b5056fea26469706673582212204ad450d8cc53a2a5d18fff2a34b3ce020fbf7a65406090bcb7e0a2182b903db364736f6c63430008050033",
  "immutableReferences": {},
  "source": "// SPDX-License-Identifier: MIT\r\npragma solidity ^0.8.0;\r\n\r\ncontract OnlineOrderingSystem {\r\n    struct Order {\r\n        address customer;\r\n        uint americanoQuantity;\r\n        uint milkTeaQuantity;\r\n        uint cappuccinoQuantity;\r\n        uint totalAmount;\r\n    }\r\n\r\n    uint constant AMERICANO_PRICE = 10 wei;\r\n    uint constant MILK_TEA_PRICE = 20 wei;\r\n    uint constant CAPPUCCINO_PRICE = 30 wei;\r\n\r\n    mapping(address => Order) public orders;\r\n    address[] public customers;\r\n\r\n    event OrderPlaced(address indexed customer, uint americanoQuantity, uint milkTeaQuantity, uint cappuccinoQuantity, uint totalAmount);\r\n\r\n    function placeOrder(uint _americanoQuantity, uint _milkTeaQuantity, uint _cappuccinoQuantity) public payable {\r\n        uint totalAmount = (_americanoQuantity * AMERICANO_PRICE) +\r\n                           (_milkTeaQuantity * MILK_TEA_PRICE) +\r\n                           (_cappuccinoQuantity * CAPPUCCINO_PRICE);\r\n                           \r\n        require(msg.value == totalAmount, \"Incorrect payment amount\");\r\n\r\n        orders[msg.sender] = Order({\r\n            customer: msg.sender,\r\n            americanoQuantity: _americanoQuantity,\r\n            milkTeaQuantity: _milkTeaQuantity,\r\n            cappuccinoQuantity: _cappuccinoQuantity,\r\n            totalAmount: totalAmount\r\n        });\r\n\r\n        customers.push(msg.sender);\r\n\r\n        emit OrderPlaced(msg.sender, _americanoQuantity, _milkTeaQuantity, _cappuccinoQuantity, totalAmount);\r\n    }\r\n\r\n    function getOrder(address _customer) public view returns (Order memory) {\r\n        return orders[_customer];\r\n    }\r\n\r\n    function withdrawFunds() public {\r\n        payable(msg.sender).transfer(address(this).balance);\r\n    }\r\n\r\n    // Fallback function to accept payments\r\n    receive() external payable {}\r\n}\r\n",
  "sourcePath": "C:\\Users\\s1240\\Downloads\\bcp\\contracts\\OnlineOrderingSystem.sol",
  "compiler": {
    "name": "solc",
    "version": "0.8.5+commit.a4f2e591.Emscripten.clang"
  },
  "schemaVersion": "3.4.16",
  "updatedAt": "2024-06-07T08:37:04.436Z",
  "networkType": "ethereum",
  "devdoc": {
    "kind": "dev",
    "methods": {},
    "version": 1
  },
  "userdoc": {
    "kind": "user",
    "methods": {},
    "version": 1
  }
}